{
  "_format": "hh-sol-artifact-1",
  "contractName": "TweetNFT",
  "sourceName": "contracts/TweetNFT.sol",
  "abi": [
    {
      "inputs": [],
      "stateMutability": "nonpayable",
      "type": "constructor"
    },
    {
      "anonymous": false,
      "inputs": [
        {
          "indexed": true,
          "internalType": "address",
          "name": "owner",
          "type": "address"
        },
        {
          "indexed": true,
          "internalType": "address",
          "name": "approved",
          "type": "address"
        },
        {
          "indexed": true,
          "internalType": "uint256",
          "name": "tokenId",
          "type": "uint256"
        }
      ],
      "name": "Approval",
      "type": "event"
    },
    {
      "anonymous": false,
      "inputs": [
        {
          "indexed": true,
          "internalType": "address",
          "name": "owner",
          "type": "address"
        },
        {
          "indexed": true,
          "internalType": "address",
          "name": "operator",
          "type": "address"
        },
        {
          "indexed": false,
          "internalType": "bool",
          "name": "approved",
          "type": "bool"
        }
      ],
      "name": "ApprovalForAll",
      "type": "event"
    },
    {
      "anonymous": false,
      "inputs": [
        {
          "indexed": true,
          "internalType": "address",
          "name": "from",
          "type": "address"
        },
        {
          "indexed": true,
          "internalType": "address",
          "name": "to",
          "type": "address"
        },
        {
          "indexed": true,
          "internalType": "uint256",
          "name": "tokenId",
          "type": "uint256"
        }
      ],
      "name": "Transfer",
      "type": "event"
    },
    {
      "anonymous": false,
      "inputs": [
        {
          "indexed": false,
          "internalType": "address",
          "name": "sender",
          "type": "address"
        },
        {
          "indexed": false,
          "internalType": "uint256",
          "name": "tokenID",
          "type": "uint256"
        }
      ],
      "name": "minted",
      "type": "event"
    },
    {
      "inputs": [
        {
          "internalType": "address",
          "name": "to",
          "type": "address"
        },
        {
          "internalType": "uint256",
          "name": "tokenId",
          "type": "uint256"
        }
      ],
      "name": "approve",
      "outputs": [],
      "stateMutability": "nonpayable",
      "type": "function"
    },
    {
      "inputs": [
        {
          "internalType": "address",
          "name": "owner",
          "type": "address"
        }
      ],
      "name": "balanceOf",
      "outputs": [
        {
          "internalType": "uint256",
          "name": "",
          "type": "uint256"
        }
      ],
      "stateMutability": "view",
      "type": "function"
    },
    {
      "inputs": [
        {
          "internalType": "uint256",
          "name": "tokenId",
          "type": "uint256"
        }
      ],
      "name": "getApproved",
      "outputs": [
        {
          "internalType": "address",
          "name": "",
          "type": "address"
        }
      ],
      "stateMutability": "view",
      "type": "function"
    },
    {
      "inputs": [
        {
          "internalType": "address",
          "name": "owner",
          "type": "address"
        },
        {
          "internalType": "address",
          "name": "operator",
          "type": "address"
        }
      ],
      "name": "isApprovedForAll",
      "outputs": [
        {
          "internalType": "bool",
          "name": "",
          "type": "bool"
        }
      ],
      "stateMutability": "view",
      "type": "function"
    },
    {
      "inputs": [
        {
          "internalType": "string",
          "name": "me",
          "type": "string"
        },
        {
          "internalType": "string",
          "name": "tweet",
          "type": "string"
        },
        {
          "internalType": "string",
          "name": "description",
          "type": "string"
        }
      ],
      "name": "mint",
      "outputs": [],
      "stateMutability": "nonpayable",
      "type": "function"
    },
    {
      "inputs": [],
      "name": "name",
      "outputs": [
        {
          "internalType": "string",
          "name": "",
          "type": "string"
        }
      ],
      "stateMutability": "view",
      "type": "function"
    },
    {
      "inputs": [
        {
          "internalType": "uint256",
          "name": "tokenId",
          "type": "uint256"
        }
      ],
      "name": "ownerOf",
      "outputs": [
        {
          "internalType": "address",
          "name": "",
          "type": "address"
        }
      ],
      "stateMutability": "view",
      "type": "function"
    },
    {
      "inputs": [
        {
          "internalType": "address",
          "name": "from",
          "type": "address"
        },
        {
          "internalType": "address",
          "name": "to",
          "type": "address"
        },
        {
          "internalType": "uint256",
          "name": "tokenId",
          "type": "uint256"
        }
      ],
      "name": "safeTransferFrom",
      "outputs": [],
      "stateMutability": "nonpayable",
      "type": "function"
    },
    {
      "inputs": [
        {
          "internalType": "address",
          "name": "from",
          "type": "address"
        },
        {
          "internalType": "address",
          "name": "to",
          "type": "address"
        },
        {
          "internalType": "uint256",
          "name": "tokenId",
          "type": "uint256"
        },
        {
          "internalType": "bytes",
          "name": "_data",
          "type": "bytes"
        }
      ],
      "name": "safeTransferFrom",
      "outputs": [],
      "stateMutability": "nonpayable",
      "type": "function"
    },
    {
      "inputs": [
        {
          "internalType": "address",
          "name": "operator",
          "type": "address"
        },
        {
          "internalType": "bool",
          "name": "approved",
          "type": "bool"
        }
      ],
      "name": "setApprovalForAll",
      "outputs": [],
      "stateMutability": "nonpayable",
      "type": "function"
    },
    {
      "inputs": [
        {
          "internalType": "bytes4",
          "name": "interfaceId",
          "type": "bytes4"
        }
      ],
      "name": "supportsInterface",
      "outputs": [
        {
          "internalType": "bool",
          "name": "",
          "type": "bool"
        }
      ],
      "stateMutability": "view",
      "type": "function"
    },
    {
      "inputs": [],
      "name": "symbol",
      "outputs": [
        {
          "internalType": "string",
          "name": "",
          "type": "string"
        }
      ],
      "stateMutability": "view",
      "type": "function"
    },
    {
      "inputs": [
        {
          "internalType": "uint256",
          "name": "tokenId",
          "type": "uint256"
        }
      ],
      "name": "tokenURI",
      "outputs": [
        {
          "internalType": "string",
          "name": "",
          "type": "string"
        }
      ],
      "stateMutability": "view",
      "type": "function"
    },
    {
      "inputs": [
        {
          "internalType": "address",
          "name": "from",
          "type": "address"
        },
        {
          "internalType": "address",
          "name": "to",
          "type": "address"
        },
        {
          "internalType": "uint256",
          "name": "tokenId",
          "type": "uint256"
        }
      ],
      "name": "transferFrom",
      "outputs": [],
      "stateMutability": "nonpayable",
      "type": "function"
    }
  ],
  "bytecode": "0x60806040526040518061086001604052806108398152602001620041eb6108399139600890805190602001906200003892919062000d1f565b50604051806102c00160405280610288815260200162004a246102889139600990805190602001906200006d92919062000d1f565b5060405180610280016040528060088054620000899062000ea4565b80601f0160208091040260200160405190810160405280929190818152602001828054620000b79062000ea4565b8015620001085780601f10620000dc5761010080835404028352916020019162000108565b820191906000526020600020905b815481529060010190602001808311620000ea57829003601f168201915b5050505050815260200160098054620001219062000ea4565b80601f01602080910402602001604051908101604052809291908181526020018280546200014f9062000ea4565b8015620001a05780601f106200017457610100808354040283529160200191620001a0565b820191906000526020600020905b8154815290600101906020018083116200018257829003601f168201915b5050505050815260200160088054620001b99062000ea4565b80601f0160208091040260200160405190810160405280929190818152602001828054620001e79062000ea4565b8015620002385780601f106200020c5761010080835404028352916020019162000238565b820191906000526020600020905b8154815290600101906020018083116200021a57829003601f168201915b5050505050815260200160098054620002519062000ea4565b80601f01602080910402602001604051908101604052809291908181526020018280546200027f9062000ea4565b8015620002d05780601f10620002a457610100808354040283529160200191620002d0565b820191906000526020600020905b815481529060010190602001808311620002b257829003601f168201915b5050505050815260200160088054620002e99062000ea4565b80601f0160208091040260200160405190810160405280929190818152602001828054620003179062000ea4565b8015620003685780601f106200033c5761010080835404028352916020019162000368565b820191906000526020600020905b8154815290600101906020018083116200034a57829003601f168201915b5050505050815260200160098054620003819062000ea4565b80601f0160208091040260200160405190810160405280929190818152602001828054620003af9062000ea4565b8015620004005780601f10620003d45761010080835404028352916020019162000400565b820191906000526020600020905b815481529060010190602001808311620003e257829003601f168201915b5050505050815260200160088054620004199062000ea4565b80601f0160208091040260200160405190810160405280929190818152602001828054620004479062000ea4565b8015620004985780601f106200046c5761010080835404028352916020019162000498565b820191906000526020600020905b8154815290600101906020018083116200047a57829003601f168201915b5050505050815260200160098054620004b19062000ea4565b80601f0160208091040260200160405190810160405280929190818152602001828054620004df9062000ea4565b8015620005305780601f10620005045761010080835404028352916020019162000530565b820191906000526020600020905b8154815290600101906020018083116200051257829003601f168201915b5050505050815260200160088054620005499062000ea4565b80601f0160208091040260200160405190810160405280929190818152602001828054620005779062000ea4565b8015620005c85780601f106200059c57610100808354040283529160200191620005c8565b820191906000526020600020905b815481529060010190602001808311620005aa57829003601f168201915b5050505050815260200160098054620005e19062000ea4565b80601f01602080910402602001604051908101604052809291908181526020018280546200060f9062000ea4565b8015620006605780601f10620006345761010080835404028352916020019162000660565b820191906000526020600020905b8154815290600101906020018083116200064257829003601f168201915b5050505050815260200160088054620006799062000ea4565b80601f0160208091040260200160405190810160405280929190818152602001828054620006a79062000ea4565b8015620006f85780601f10620006cc57610100808354040283529160200191620006f8565b820191906000526020600020905b815481529060010190602001808311620006da57829003601f168201915b5050505050815260200160098054620007119062000ea4565b80601f01602080910402602001604051908101604052809291908181526020018280546200073f9062000ea4565b8015620007905780601f10620007645761010080835404028352916020019162000790565b820191906000526020600020905b8154815290600101906020018083116200077257829003601f168201915b5050505050815260200160088054620007a99062000ea4565b80601f0160208091040260200160405190810160405280929190818152602001828054620007d79062000ea4565b8015620008285780601f10620007fc5761010080835404028352916020019162000828565b820191906000526020600020905b8154815290600101906020018083116200080a57829003601f168201915b5050505050815260200160098054620008419062000ea4565b80601f01602080910402602001604051908101604052809291908181526020018280546200086f9062000ea4565b8015620008c05780601f106200089457610100808354040283529160200191620008c0565b820191906000526020600020905b815481529060010190602001808311620008a257829003601f168201915b5050505050815260200160088054620008d99062000ea4565b80601f0160208091040260200160405190810160405280929190818152602001828054620009079062000ea4565b8015620009585780601f106200092c5761010080835404028352916020019162000958565b820191906000526020600020905b8154815290600101906020018083116200093a57829003601f168201915b5050505050815260200160098054620009719062000ea4565b80601f01602080910402602001604051908101604052809291908181526020018280546200099f9062000ea4565b8015620009f05780601f10620009c457610100808354040283529160200191620009f0565b820191906000526020600020905b815481529060010190602001808311620009d257829003601f168201915b505050505081526020016008805462000a099062000ea4565b80601f016020809104026020016040519081016040528092919081815260200182805462000a379062000ea4565b801562000a885780601f1062000a5c5761010080835404028352916020019162000a88565b820191906000526020600020905b81548152906001019060200180831162000a6a57829003601f168201915b505050505081526020016009805462000aa19062000ea4565b80601f016020809104026020016040519081016040528092919081815260200182805462000acf9062000ea4565b801562000b205780601f1062000af45761010080835404028352916020019162000b20565b820191906000526020600020905b81548152906001019060200180831162000b0257829003601f168201915b505050505081526020016008805462000b399062000ea4565b80601f016020809104026020016040519081016040528092919081815260200182805462000b679062000ea4565b801562000bb85780601f1062000b8c5761010080835404028352916020019162000bb8565b820191906000526020600020905b81548152906001019060200180831162000b9a57829003601f168201915b505050505081526020016009805462000bd19062000ea4565b80601f016020809104026020016040519081016040528092919081815260200182805462000bff9062000ea4565b801562000c505780601f1062000c245761010080835404028352916020019162000c50565b820191906000526020600020905b81548152906001019060200180831162000c3257829003601f168201915b5050505050815250600a90601462000c6a92919062000db0565b5034801562000c7857600080fd5b506040518060400160405280600881526020017f54776565744e46540000000000000000000000000000000000000000000000008152506040518060400160405280600581526020017f5457454554000000000000000000000000000000000000000000000000000000815250816000908051906020019062000cfd92919062000d1f565b50806001908051906020019062000d1692919062000d1f565b50505062000f09565b82805462000d2d9062000ea4565b90600052602060002090601f01602090048101928262000d51576000855562000d9d565b82601f1062000d6c57805160ff191683800117855562000d9d565b8280016001018555821562000d9d579182015b8281111562000d9c57825182559160200191906001019062000d7f565b5b50905062000dac919062000e17565b5090565b82805482825590600052602060002090810192821562000e04579160200282015b8281111562000e0357825182908051906020019062000df292919062000d1f565b509160200191906001019062000dd1565b5b50905062000e13919062000e36565b5090565b5b8082111562000e3257600081600090555060010162000e18565b5090565b5b8082111562000e5a576000818162000e50919062000e5e565b5060010162000e37565b5090565b50805462000e6c9062000ea4565b6000825580601f1062000e80575062000ea1565b601f01602090049060005260206000209081019062000ea0919062000e17565b5b50565b6000600282049050600182168062000ebd57607f821691505b6020821081141562000ed45762000ed362000eda565b5b50919050565b7f4e487b7100000000000000000000000000000000000000000000000000000000600052602260045260246000fd5b6132d28062000f196000396000f3fe608060405234801561001057600080fd5b50600436106100ea5760003560e01c806370a082311161008c578063b88d4fde11610066578063b88d4fde1461025b578063c87b56dd14610277578063d645ddf6146102a7578063e985e9c5146102c3576100ea565b806370a08231146101f157806395d89b4114610221578063a22cb4651461023f576100ea565b8063095ea7b3116100c8578063095ea7b31461016d57806323b872dd1461018957806342842e0e146101a55780636352211e146101c1576100ea565b806301ffc9a7146100ef57806306fdde031461011f578063081812fc1461013d575b600080fd5b61010960048036038101906101049190611f89565b6102f3565b60405161011691906125cf565b60405180910390f35b6101276103d5565b60405161013491906125ea565b60405180910390f35b61015760048036038101906101529190612072565b610467565b604051610164919061253f565b60405180910390f35b61018760048036038101906101829190611f4d565b6104ec565b005b6101a3600480360381019061019e9190611e47565b610604565b005b6101bf60048036038101906101ba9190611e47565b610664565b005b6101db60048036038101906101d69190612072565b610684565b6040516101e8919061253f565b60405180910390f35b61020b60048036038101906102069190611de2565b610736565b604051610218919061280c565b60405180910390f35b6102296107ee565b60405161023691906125ea565b60405180910390f35b61025960048036038101906102549190611f11565b610880565b005b61027560048036038101906102709190611e96565b610896565b005b610291600480360381019061028c9190612072565b6108f8565b60405161029e91906125ea565b60405180910390f35b6102c160048036038101906102bc9190611fdb565b610a4a565b005b6102dd60048036038101906102d89190611e0b565b610c21565b6040516102ea91906125cf565b60405180910390f35b60007f80ac58cd000000000000000000000000000000000000000000000000000000007bffffffffffffffffffffffffffffffffffffffffffffffffffffffff1916827bffffffffffffffffffffffffffffffffffffffffffffffffffffffff191614806103be57507f5b5e139f000000000000000000000000000000000000000000000000000000007bffffffffffffffffffffffffffffffffffffffffffffffffffffffff1916827bffffffffffffffffffffffffffffffffffffffffffffffffffffffff1916145b806103ce57506103cd82610cb5565b5b9050919050565b6060600080546103e490612abc565b80601f016020809104026020016040519081016040528092919081815260200182805461041090612abc565b801561045d5780601f106104325761010080835404028352916020019161045d565b820191906000526020600020905b81548152906001019060200180831161044057829003601f168201915b5050505050905090565b600061047282610d1f565b6104b1576040517f08c379a00000000000000000000000000000000000000000000000000000000081526004016104a89061276c565b60405180910390fd5b6004600083815260200190815260200160002060009054906101000a900473ffffffffffffffffffffffffffffffffffffffff169050919050565b60006104f782610684565b90508073ffffffffffffffffffffffffffffffffffffffff168373ffffffffffffffffffffffffffffffffffffffff161415610568576040517f08c379a000000000000000000000000000000000000000000000000000000000815260040161055f906127cc565b60405180910390fd5b8073ffffffffffffffffffffffffffffffffffffffff16610587610d8b565b73ffffffffffffffffffffffffffffffffffffffff1614806105b657506105b5816105b0610d8b565b610c21565b5b6105f5576040517f08c379a00000000000000000000000000000000000000000000000000000000081526004016105ec906126ac565b60405180910390fd5b6105ff8383610d93565b505050565b61061561060f610d8b565b82610e4c565b610654576040517f08c379a000000000000000000000000000000000000000000000000000000000815260040161064b906127ec565b60405180910390fd5b61065f838383610f2a565b505050565b61067f83838360405180602001604052806000815250610896565b505050565b6000806002600084815260200190815260200160002060009054906101000a900473ffffffffffffffffffffffffffffffffffffffff169050600073ffffffffffffffffffffffffffffffffffffffff168173ffffffffffffffffffffffffffffffffffffffff16141561072d576040517f08c379a0000000000000000000000000000000000000000000000000000000008152600401610724906126ec565b60405180910390fd5b80915050919050565b60008073ffffffffffffffffffffffffffffffffffffffff168273ffffffffffffffffffffffffffffffffffffffff1614156107a7576040517f08c379a000000000000000000000000000000000000000000000000000000000815260040161079e906126cc565b60405180910390fd5b600360008373ffffffffffffffffffffffffffffffffffffffff1673ffffffffffffffffffffffffffffffffffffffff168152602001908152602001600020549050919050565b6060600180546107fd90612abc565b80601f016020809104026020016040519081016040528092919081815260200182805461082990612abc565b80156108765780601f1061084b57610100808354040283529160200191610876565b820191906000526020600020905b81548152906001019060200180831161085957829003601f168201915b5050505050905090565b61089261088b610d8b565b8383611186565b5050565b6108a76108a1610d8b565b83610e4c565b6108e6576040517f08c379a00000000000000000000000000000000000000000000000000000000081526004016108dd906127ec565b60405180910390fd5b6108f2848484846112f3565b50505050565b606061090382610d1f565b610942576040517f08c379a00000000000000000000000000000000000000000000000000000000081526004016109399061274c565b60405180910390fd5b600060066000848152602001908152602001600020805461096290612abc565b80601f016020809104026020016040519081016040528092919081815260200182805461098e90612abc565b80156109db5780601f106109b0576101008083540402835291602001916109db565b820191906000526020600020905b8154815290600101906020018083116109be57829003601f168201915b5050505050905060006109ec61134f565b9050600081511415610a02578192505050610a45565b600082511115610a37578082604051602001610a1f92919061246d565b60405160208183030381529060405292505050610a45565b610a4084611366565b925050505b919050565b60003390506000610a5b600761140d565b90506000600a808054905083610a719190612b68565b81548110610aa8577f4e487b7100000000000000000000000000000000000000000000000000000000600052603260045260246000fd5b906000526020600020018054610abd90612abc565b80601f0160208091040260200160405190810160405280929190818152602001828054610ae990612abc565b8015610b365780601f10610b0b57610100808354040283529160200191610b36565b820191906000526020600020905b815481529060010190602001808311610b1957829003601f168201915b5050505050905060008186604051602001610b52929190612491565b60405160208183030381529060405290506000610b998887610b738561141b565b604051602001610b85939291906124c0565b60405160208183030381529060405261141b565b9050600081604051602001610bae919061251d565b6040516020818303038152906040529050610bc986866115d9565b610bd385826115f7565b7fb7656808f0e04b4af7a20f7ef1caa7669f0d781f1ca4cba31a3ba467880766c98686604051610c049291906125a6565b60405180910390a1610c16600761166b565b505050505050505050565b6000600560008473ffffffffffffffffffffffffffffffffffffffff1673ffffffffffffffffffffffffffffffffffffffff16815260200190815260200160002060008373ffffffffffffffffffffffffffffffffffffffff1673ffffffffffffffffffffffffffffffffffffffff16815260200190815260200160002060009054906101000a900460ff16905092915050565b60007f01ffc9a7000000000000000000000000000000000000000000000000000000007bffffffffffffffffffffffffffffffffffffffffffffffffffffffff1916827bffffffffffffffffffffffffffffffffffffffffffffffffffffffff1916149050919050565b60008073ffffffffffffffffffffffffffffffffffffffff166002600084815260200190815260200160002060009054906101000a900473ffffffffffffffffffffffffffffffffffffffff1673ffffffffffffffffffffffffffffffffffffffff1614159050919050565b600033905090565b816004600083815260200190815260200160002060006101000a81548173ffffffffffffffffffffffffffffffffffffffff021916908373ffffffffffffffffffffffffffffffffffffffff160217905550808273ffffffffffffffffffffffffffffffffffffffff16610e0683610684565b73ffffffffffffffffffffffffffffffffffffffff167f8c5be1e5ebec7d5bd14f71427d1e84f3dd0314c0f7b2291e5b200ac8c7c3b92560405160405180910390a45050565b6000610e5782610d1f565b610e96576040517f08c379a0000000000000000000000000000000000000000000000000000000008152600401610e8d9061268c565b60405180910390fd5b6000610ea183610684565b90508073ffffffffffffffffffffffffffffffffffffffff168473ffffffffffffffffffffffffffffffffffffffff161480610f1057508373ffffffffffffffffffffffffffffffffffffffff16610ef884610467565b73ffffffffffffffffffffffffffffffffffffffff16145b80610f215750610f208185610c21565b5b91505092915050565b8273ffffffffffffffffffffffffffffffffffffffff16610f4a82610684565b73ffffffffffffffffffffffffffffffffffffffff1614610fa0576040517f08c379a0000000000000000000000000000000000000000000000000000000008152600401610f979061278c565b60405180910390fd5b600073ffffffffffffffffffffffffffffffffffffffff168273ffffffffffffffffffffffffffffffffffffffff161415611010576040517f08c379a00000000000000000000000000000000000000000000000000000000081526004016110079061264c565b60405180910390fd5b61101b838383611681565b611026600082610d93565b6001600360008573ffffffffffffffffffffffffffffffffffffffff1673ffffffffffffffffffffffffffffffffffffffff168152602001908152602001600020600082825461107691906129d2565b925050819055506001600360008473ffffffffffffffffffffffffffffffffffffffff1673ffffffffffffffffffffffffffffffffffffffff16815260200190815260200160002060008282546110cd91906128f1565b92505081905550816002600083815260200190815260200160002060006101000a81548173ffffffffffffffffffffffffffffffffffffffff021916908373ffffffffffffffffffffffffffffffffffffffff160217905550808273ffffffffffffffffffffffffffffffffffffffff168473ffffffffffffffffffffffffffffffffffffffff167fddf252ad1be2c89b69c2b068fc378daa952ba7f163c4a11628f55a4df523b3ef60405160405180910390a4505050565b8173ffffffffffffffffffffffffffffffffffffffff168373ffffffffffffffffffffffffffffffffffffffff1614156111f5576040517f08c379a00000000000000000000000000000000000000000000000000000000081526004016111ec9061266c565b60405180910390fd5b80600560008573ffffffffffffffffffffffffffffffffffffffff1673ffffffffffffffffffffffffffffffffffffffff16815260200190815260200160002060008473ffffffffffffffffffffffffffffffffffffffff1673ffffffffffffffffffffffffffffffffffffffff16815260200190815260200160002060006101000a81548160ff0219169083151502179055508173ffffffffffffffffffffffffffffffffffffffff168373ffffffffffffffffffffffffffffffffffffffff167f17307eab39ab6107e8899845ad3d59bd9653f200f220920489ca2b5937696c31836040516112e691906125cf565b60405180910390a3505050565b6112fe848484610f2a565b61130a84848484611686565b611349576040517f08c379a00000000000000000000000000000000000000000000000000000000081526004016113409061260c565b60405180910390fd5b50505050565b606060405180602001604052806000815250905090565b606061137182610d1f565b6113b0576040517f08c379a00000000000000000000000000000000000000000000000000000000081526004016113a7906127ac565b60405180910390fd5b60006113ba61134f565b905060008151116113da5760405180602001604052806000815250611405565b806113e48461181d565b6040516020016113f592919061246d565b6040516020818303038152906040525b915050919050565b600081600001549050919050565b6060600082519050600081141561144457604051806020016040528060008152509150506115d4565b6000600360028361145591906128f1565b61145f9190612947565b600461146b9190612978565b9050600060208261147c91906128f1565b67ffffffffffffffff8111156114bb577f4e487b7100000000000000000000000000000000000000000000000000000000600052604160045260246000fd5b6040519080825280601f01601f1916602001820160405280156114ed5781602001600182028036833780820191505090505b509050600060405180606001604052806040815260200161325d604091399050600181016020830160005b868110156115915760038101905062ffffff818a015116603f8160121c168401518060081b905060ff603f83600c1c1686015116810190508060081b905060ff603f8360061c1686015116810190508060081b905060ff603f831686015116810190508060e01b90508084526004840193505050611518565b5060038606600181146115ab57600281146115bb576115c6565b613d3d60f01b60028303526115c6565b603d60f81b60018303525b508484525050819450505050505b919050565b6115f38282604051806020016040528060008152506119ca565b5050565b61160082610d1f565b61163f576040517f08c379a00000000000000000000000000000000000000000000000000000000081526004016116369061270c565b60405180910390fd5b80600660008481526020019081526020016000209080519060200190611666929190611c06565b505050565b6001816000016000828254019250508190555050565b505050565b60006116a78473ffffffffffffffffffffffffffffffffffffffff16611a25565b15611810578373ffffffffffffffffffffffffffffffffffffffff1663150b7a026116d0610d8b565b8786866040518563ffffffff1660e01b81526004016116f2949392919061255a565b602060405180830381600087803b15801561170c57600080fd5b505af192505050801561173d57506040513d601f19601f8201168201806040525081019061173a9190611fb2565b60015b6117c0573d806000811461176d576040519150601f19603f3d011682016040523d82523d6000602084013e611772565b606091505b506000815114156117b8576040517f08c379a00000000000000000000000000000000000000000000000000000000081526004016117af9061260c565b60405180910390fd5b805181602001fd5b63150b7a0260e01b7bffffffffffffffffffffffffffffffffffffffffffffffffffffffff1916817bffffffffffffffffffffffffffffffffffffffffffffffffffffffff191614915050611815565b600190505b949350505050565b60606000821415611865576040518060400160405280600181526020017f300000000000000000000000000000000000000000000000000000000000000081525090506119c5565b600082905060005b6000821461189757808061188090612b1f565b915050600a826118909190612947565b915061186d565b60008167ffffffffffffffff8111156118d9577f4e487b7100000000000000000000000000000000000000000000000000000000600052604160045260246000fd5b6040519080825280601f01601f19166020018201604052801561190b5781602001600182028036833780820191505090505b5090505b600085146119be5760018261192491906129d2565b9150600a856119339190612b68565b603061193f91906128f1565b60f81b81838151811061197b577f4e487b7100000000000000000000000000000000000000000000000000000000600052603260045260246000fd5b60200101907effffffffffffffffffffffffffffffffffffffffffffffffffffffffffffff1916908160001a905350600a856119b79190612947565b945061190f565b8093505050505b919050565b6119d48383611a38565b6119e16000848484611686565b611a20576040517f08c379a0000000000000000000000000000000000000000000000000000000008152600401611a179061260c565b60405180910390fd5b505050565b600080823b905060008111915050919050565b600073ffffffffffffffffffffffffffffffffffffffff168273ffffffffffffffffffffffffffffffffffffffff161415611aa8576040517f08c379a0000000000000000000000000000000000000000000000000000000008152600401611a9f9061272c565b60405180910390fd5b611ab181610d1f565b15611af1576040517f08c379a0000000000000000000000000000000000000000000000000000000008152600401611ae89061262c565b60405180910390fd5b611afd60008383611681565b6001600360008473ffffffffffffffffffffffffffffffffffffffff1673ffffffffffffffffffffffffffffffffffffffff1681526020019081526020016000206000828254611b4d91906128f1565b92505081905550816002600083815260200190815260200160002060006101000a81548173ffffffffffffffffffffffffffffffffffffffff021916908373ffffffffffffffffffffffffffffffffffffffff160217905550808273ffffffffffffffffffffffffffffffffffffffff16600073ffffffffffffffffffffffffffffffffffffffff167fddf252ad1be2c89b69c2b068fc378daa952ba7f163c4a11628f55a4df523b3ef60405160405180910390a45050565b828054611c1290612abc565b90600052602060002090601f016020900481019282611c345760008555611c7b565b82601f10611c4d57805160ff1916838001178555611c7b565b82800160010185558215611c7b579182015b82811115611c7a578251825591602001919060010190611c5f565b5b509050611c889190611c8c565b5090565b5b80821115611ca5576000816000905550600101611c8d565b5090565b6000611cbc611cb78461284c565b612827565b905082815260208101848484011115611cd457600080fd5b611cdf848285612a7a565b509392505050565b6000611cfa611cf58461287d565b612827565b905082815260208101848484011115611d1257600080fd5b611d1d848285612a7a565b509392505050565b600081359050611d3481613200565b92915050565b600081359050611d4981613217565b92915050565b600081359050611d5e8161322e565b92915050565b600081519050611d738161322e565b92915050565b600082601f830112611d8a57600080fd5b8135611d9a848260208601611ca9565b91505092915050565b600082601f830112611db457600080fd5b8135611dc4848260208601611ce7565b91505092915050565b600081359050611ddc81613245565b92915050565b600060208284031215611df457600080fd5b6000611e0284828501611d25565b91505092915050565b60008060408385031215611e1e57600080fd5b6000611e2c85828601611d25565b9250506020611e3d85828601611d25565b9150509250929050565b600080600060608486031215611e5c57600080fd5b6000611e6a86828701611d25565b9350506020611e7b86828701611d25565b9250506040611e8c86828701611dcd565b9150509250925092565b60008060008060808587031215611eac57600080fd5b6000611eba87828801611d25565b9450506020611ecb87828801611d25565b9350506040611edc87828801611dcd565b925050606085013567ffffffffffffffff811115611ef957600080fd5b611f0587828801611d79565b91505092959194509250565b60008060408385031215611f2457600080fd5b6000611f3285828601611d25565b9250506020611f4385828601611d3a565b9150509250929050565b60008060408385031215611f6057600080fd5b6000611f6e85828601611d25565b9250506020611f7f85828601611dcd565b9150509250929050565b600060208284031215611f9b57600080fd5b6000611fa984828501611d4f565b91505092915050565b600060208284031215611fc457600080fd5b6000611fd284828501611d64565b91505092915050565b600080600060608486031215611ff057600080fd5b600084013567ffffffffffffffff81111561200a57600080fd5b61201686828701611da3565b935050602084013567ffffffffffffffff81111561203357600080fd5b61203f86828701611da3565b925050604084013567ffffffffffffffff81111561205c57600080fd5b61206886828701611da3565b9150509250925092565b60006020828403121561208457600080fd5b600061209284828501611dcd565b91505092915050565b6120a481612a06565b82525050565b6120b381612a18565b82525050565b60006120c4826128ae565b6120ce81856128c4565b93506120de818560208601612a89565b6120e781612c55565b840191505092915050565b60006120fd826128b9565b61210781856128d5565b9350612117818560208601612a89565b61212081612c55565b840191505092915050565b6000612136826128b9565b61214081856128e6565b9350612150818560208601612a89565b80840191505092915050565b60006121696013836128e6565b915061217482612c66565b601382019050919050565b600061218c6032836128d5565b915061219782612c8f565b604082019050919050565b60006121af600b836128e6565b91506121ba82612cde565b600b82019050919050565b60006121d2601c836128d5565b91506121dd82612d07565b602082019050919050565b60006121f56024836128d5565b915061220082612d30565b604082019050919050565b60006122186019836128d5565b915061222382612d7f565b602082019050919050565b600061223b602c836128d5565b915061224682612da8565b604082019050919050565b600061225e600d836128e6565b915061226982612df7565b600d82019050919050565b60006122816038836128d5565b915061228c82612e20565b604082019050919050565b60006122a4602a836128d5565b91506122af82612e6f565b604082019050919050565b60006122c76029836128d5565b91506122d282612ebe565b604082019050919050565b60006122ea602e836128d5565b91506122f582612f0d565b604082019050919050565b600061230d6002836128e6565b915061231882612f5c565b600282019050919050565b60006123306020836128d5565b915061233b82612f85565b602082019050919050565b60006123536031836128d5565b915061235e82612fae565b604082019050919050565b6000612376602c836128d5565b915061238182612ffd565b604082019050919050565b60006123996029836128d5565b91506123a48261304c565b604082019050919050565b60006123bc602f836128d5565b91506123c78261309b565b604082019050919050565b60006123df6027836128e6565b91506123ea826130ea565b602782019050919050565b60006124026021836128d5565b915061240d82613139565b604082019050919050565b6000612425601d836128e6565b915061243082613188565b601d82019050919050565b60006124486031836128d5565b9150612453826131b1565b604082019050919050565b61246781612a70565b82525050565b6000612479828561212b565b9150612485828461212b565b91508190509392505050565b600061249d828561212b565b91506124a9828461212b565b91506124b482612251565b91508190509392505050565b60006124cb826121a2565b91506124d7828661212b565b91506124e28261215c565b91506124ee828561212b565b91506124f9826123d2565b9150612505828461212b565b915061251082612300565b9150819050949350505050565b600061252882612418565b9150612534828461212b565b915081905092915050565b6000602082019050612554600083018461209b565b92915050565b600060808201905061256f600083018761209b565b61257c602083018661209b565b612589604083018561245e565b818103606083015261259b81846120b9565b905095945050505050565b60006040820190506125bb600083018561209b565b6125c8602083018461245e565b9392505050565b60006020820190506125e460008301846120aa565b92915050565b6000602082019050818103600083015261260481846120f2565b905092915050565b600060208201905081810360008301526126258161217f565b9050919050565b60006020820190508181036000830152612645816121c5565b9050919050565b60006020820190508181036000830152612665816121e8565b9050919050565b600060208201905081810360008301526126858161220b565b9050919050565b600060208201905081810360008301526126a58161222e565b9050919050565b600060208201905081810360008301526126c581612274565b9050919050565b600060208201905081810360008301526126e581612297565b9050919050565b60006020820190508181036000830152612705816122ba565b9050919050565b60006020820190508181036000830152612725816122dd565b9050919050565b6000602082019050818103600083015261274581612323565b9050919050565b6000602082019050818103600083015261276581612346565b9050919050565b6000602082019050818103600083015261278581612369565b9050919050565b600060208201905081810360008301526127a58161238c565b9050919050565b600060208201905081810360008301526127c5816123af565b9050919050565b600060208201905081810360008301526127e5816123f5565b9050919050565b600060208201905081810360008301526128058161243b565b9050919050565b6000602082019050612821600083018461245e565b92915050565b6000612831612842565b905061283d8282612aee565b919050565b6000604051905090565b600067ffffffffffffffff82111561286757612866612c26565b5b61287082612c55565b9050602081019050919050565b600067ffffffffffffffff82111561289857612897612c26565b5b6128a182612c55565b9050602081019050919050565b600081519050919050565b600081519050919050565b600082825260208201905092915050565b600082825260208201905092915050565b600081905092915050565b60006128fc82612a70565b915061290783612a70565b9250827fffffffffffffffffffffffffffffffffffffffffffffffffffffffffffffffff0382111561293c5761293b612b99565b5b828201905092915050565b600061295282612a70565b915061295d83612a70565b92508261296d5761296c612bc8565b5b828204905092915050565b600061298382612a70565b915061298e83612a70565b9250817fffffffffffffffffffffffffffffffffffffffffffffffffffffffffffffffff04831182151516156129c7576129c6612b99565b5b828202905092915050565b60006129dd82612a70565b91506129e883612a70565b9250828210156129fb576129fa612b99565b5b828203905092915050565b6000612a1182612a50565b9050919050565b60008115159050919050565b60007fffffffff0000000000000000000000000000000000000000000000000000000082169050919050565b600073ffffffffffffffffffffffffffffffffffffffff82169050919050565b6000819050919050565b82818337600083830152505050565b60005b83811015612aa7578082015181840152602081019050612a8c565b83811115612ab6576000848401525b50505050565b60006002820490506001821680612ad457607f821691505b60208210811415612ae857612ae7612bf7565b5b50919050565b612af782612c55565b810181811067ffffffffffffffff82111715612b1657612b15612c26565b5b80604052505050565b6000612b2a82612a70565b91507fffffffffffffffffffffffffffffffffffffffffffffffffffffffffffffffff821415612b5d57612b5c612b99565b5b600182019050919050565b6000612b7382612a70565b9150612b7e83612a70565b925082612b8e57612b8d612bc8565b5b828206905092915050565b7f4e487b7100000000000000000000000000000000000000000000000000000000600052601160045260246000fd5b7f4e487b7100000000000000000000000000000000000000000000000000000000600052601260045260246000fd5b7f4e487b7100000000000000000000000000000000000000000000000000000000600052602260045260246000fd5b7f4e487b7100000000000000000000000000000000000000000000000000000000600052604160045260246000fd5b6000601f19601f8301169050919050565b7f222c20226465736372697074696f6e223a202200000000000000000000000000600082015250565b7f4552433732313a207472616e7366657220746f206e6f6e20455243373231526560008201527f63656976657220696d706c656d656e7465720000000000000000000000000000602082015250565b7f7b20226e616d65223a2022000000000000000000000000000000000000000000600082015250565b7f4552433732313a20746f6b656e20616c7265616479206d696e74656400000000600082015250565b7f4552433732313a207472616e7366657220746f20746865207a65726f2061646460008201527f7265737300000000000000000000000000000000000000000000000000000000602082015250565b7f4552433732313a20617070726f766520746f2063616c6c657200000000000000600082015250565b7f4552433732313a206f70657261746f7220717565727920666f72206e6f6e657860008201527f697374656e7420746f6b656e0000000000000000000000000000000000000000602082015250565b7f3c2f746578743e3c2f7376673e00000000000000000000000000000000000000600082015250565b7f4552433732313a20617070726f76652063616c6c6572206973206e6f74206f7760008201527f6e6572206e6f7220617070726f76656420666f7220616c6c0000000000000000602082015250565b7f4552433732313a2062616c616e636520717565727920666f7220746865207a6560008201527f726f206164647265737300000000000000000000000000000000000000000000602082015250565b7f4552433732313a206f776e657220717565727920666f72206e6f6e657869737460008201527f656e7420746f6b656e0000000000000000000000000000000000000000000000602082015250565b7f45524337323155524953746f726167653a2055524920736574206f66206e6f6e60008201527f6578697374656e7420746f6b656e000000000000000000000000000000000000602082015250565b7f227d000000000000000000000000000000000000000000000000000000000000600082015250565b7f4552433732313a206d696e7420746f20746865207a65726f2061646472657373600082015250565b7f45524337323155524953746f726167653a2055524920717565727920666f722060008201527f6e6f6e6578697374656e7420746f6b656e000000000000000000000000000000602082015250565b7f4552433732313a20617070726f76656420717565727920666f72206e6f6e657860008201527f697374656e7420746f6b656e0000000000000000000000000000000000000000602082015250565b7f4552433732313a207472616e73666572206f6620746f6b656e2074686174206960008201527f73206e6f74206f776e0000000000000000000000000000000000000000000000602082015250565b7f4552433732314d657461646174613a2055524920717565727920666f72206e6f60008201527f6e6578697374656e7420746f6b656e0000000000000000000000000000000000602082015250565b7f222c2022696d616765223a2022646174613a696d6167652f7376672b786d6c3b60008201527f6261736536342c00000000000000000000000000000000000000000000000000602082015250565b7f4552433732313a20617070726f76616c20746f2063757272656e74206f776e6560008201527f7200000000000000000000000000000000000000000000000000000000000000602082015250565b7f646174613a6170706c69636174696f6e2f6a736f6e3b6261736536342c000000600082015250565b7f4552433732313a207472616e736665722063616c6c6572206973206e6f74206f60008201527f776e6572206e6f7220617070726f766564000000000000000000000000000000602082015250565b61320981612a06565b811461321457600080fd5b50565b61322081612a18565b811461322b57600080fd5b50565b61323781612a24565b811461324257600080fd5b50565b61324e81612a70565b811461325957600080fd5b5056fe4142434445464748494a4b4c4d4e4f505152535455565758595a6162636465666768696a6b6c6d6e6f707172737475767778797a303132333435363738392b2fa2646970667358221220847222a41c283b1de736960f998eb198036ee71b060b7a2be0e8a3b108a6a78a64736f6c634300080400333c73766720786d6c6e733d27687474703a2f2f7777772e77332e6f72672f323030302f737667272077696474683d2735303027206865696768743d2735303027207072657365727665417370656374526174696f3d27784d696e594d696e206d656574272076696577426f783d273020302035303020353030273e3c726563742066696c6c3d2723666661613030272077696474683d2735303027206865696768743d27353030272f3e203c672066696c6c2d6f7061636974793d2731273e203c706174682066696c6c3d27236666623130302720643d274d343836203730352e38632d3130392e332d32312e382d3232332e342d33322e322d3333352e332d31392e344339392e35203639322e31203439203730332030203731392e3856383030683834332e38632d3131352e392d33332e322d3233302e382d36382e312d3334372e362d39322e32433439322e38203730372e31203438392e34203730362e3520343836203730352e387a272f3e203c706174682066696c6c3d27236666623830302720643d274d3136303020304830763731392e386334392d31362e382039392e352d32372e38203135302e372d33332e35633131312e392d31322e37203232362d322e34203333352e332031392e3463332e3420302e3720362e3820312e342031302e322032633131362e38203234203233312e37203539203334372e362039322e32483136303056307a272f3e203c706174682066696c6c3d27236666626530302720643d274d3437382e342035383163332e3220302e3820362e3420312e3720392e3520322e35633139362e322035322e35203338382e37203133332e35203539332e35203137362e36633137342e322033362e36203334392e352032392e32203531382e362d31302e3256304830763537342e396335322e332d31372e36203130362e352d32372e37203136312e312d33302e39433236382e34203533372e34203337352e37203535342e32203437382e34203538317a272f3e203c706174682066696c6c3d27236666633530302720643d274d302030763432392e346335352e362d31382e34203131332e352d32372e33203137312e342d32372e37633130322e382d302e38203230332e322032322e37203239392e332035342e356333203120352e39203220382e392033633138332e36203632203336352e37203134362e31203536322e34203139322e31633138362e372034332e37203337362e332033342e34203535372e392d31322e36563048307a272f3e203c706174682066696c6c3d27236666636330302720643d274d3138312e38203235392e346339382e322036203139312e392033352e32203238312e332037322e3163322e3820312e3120352e3520322e3320382e3320332e34633137312037312e36203334322e37203135382e35203533312e33203230372e37633139382e382035312e38203430332e342034302e38203539372e332d31342e3856304830763238332e32433539203236332e36203132302e36203235352e37203138312e38203235392e347a272f3e203c706174682066696c6c3d27236666643931342720643d274d3136303020304830763133362e336336322e332d32302e39203132372e372d32372e35203139322e322d31392e326339332e362031322e31203138302e352034372e37203236332e332038392e3663322e3620312e3320352e3120322e3620372e3720332e39633135382e342038312e31203331392e37203137302e39203530302e33203232332e32633231302e35203631203433302e38203439203633362e362d31362e3656307a272f3e203c706174682066696c6c3d27236666653532392720643d274d3435342e392038362e33433630302e3720313737203735312e36203236392e33203932342e3120333235633230382e362036372e34203433312e332036302e38203633372e392d352e336331322e382d342e312032352e342d382e342033382e312d31322e395630483238382e316335362032312e33203130382e372035302e36203135392e37203832433435302e322038332e34203435322e352038342e39203435342e392038362e337a272f3e203c706174682066696c6c3d27236666656633642720643d274d31363030203048343938633131382e312038352e38203234332e35203136342e35203338362e38203231362e32633139312e382036392e32203430302037342e37203539352032312e316334302e382d31312e322038312e312d32352e32203132302e332d34312e3756307a272f3e203c706174682066696c6c3d27236666663835322720643d274d313339372e35203135342e386334372e322d31302e362039332e362d32352e33203133382e362d34332e386332312e372d382e392034332d31382e382036332e392d32392e355630483634332e346336322e392034312e37203132392e372037382e32203230322e31203130372e3443313032302e34203137382e3120313231342e32203139362e3120313339372e35203135342e387a272f3e203c706174682066696c6c3d27236666666636362720643d274d313331352e332037322e346337352e332d31322e36203134382e392d33372e31203231362e382d37322e34682d373233433936362e3820373120313134342e372031303120313331352e332037322e347a272f3e203c2f673e203c7465787420783d273530252720793d273530252720666f6e742d73697a653d27312e32656d2720636c6173733d27626173652720646f6d696e616e742d626173656c696e653d276d6964646c65272066696c6c3d27236666666265352720746578742d616e63686f723d276d6964646c652720666f6e742d66616d696c793d27436f6d69632053616e73204d53273e3c73766720786d6c6e733d27687474703a2f2f7777772e77332e6f72672f323030302f737667272077696474683d2735303027206865696768743d2735303027207072657365727665417370656374526174696f3d27784d696e594d696e206d656574272076696577426f783d273020302035303020353030273e203c726563742066696c6c3d2723303030303030272077696474683d2735303027206865696768743d27353030272f3e203c672066696c6c2d6f7061636974793d2731273e203c636972636c652066696c6c3d2723313830303330272063783d27353030272063793d273530302720723d27373230272f3e203c636972636c652066696c6c3d2723323330303436272063783d27353030272063793d273530302720723d27363030272f3e203c636972636c652066696c6c3d2723326630303532272063783d27353030272063793d273530302720723d27343830272f3e203c636972636c652066696c6c3d2723336230373565272063783d27353030272063793d273530302720723d27333630272f3e203c636972636c652066696c6c3d2723343831353661272063783d27353030272063793d273530302720723d27323430272f3e203c636972636c652066696c6c3d2723353532323737272063783d27353030272063793d273530302720723d27313230272f3e203c2f673e203c7465787420783d273530252720793d273530252720666f6e742d73697a653d27312e32656d2720636c6173733d27626173652720646f6d696e616e742d626173656c696e653d276d6964646c652720746578742d616e63686f723d276d6964646c65272066696c6c3d27236563643966652720666f6e742d66616d696c793d27436f6d69632053616e73204d53273e",
  "linkReferences": {},
  "deployedLinkReferences": {}
}